{
	"data": {
		"bytecode": {
			"linkReferences": {},
			"object": "608060405234801561001057600080fd5b50610289806100206000396000f3006080604052600436106100275763ffffffff60e060020a60003504166372a503be811461002c575b600080fd5b34801561003857600080fd5b506040805160206004602480358281013584810280870186019097528086526100c8968435600160a060020a031696369660449591949091019291829185019084908082843750506040805187358901803560208181028481018201909552818452989b9a9989019892975090820195509350839250850190849080828437509497506100dc9650505050505050565b604080519115158252519081900360200190f35b6000808085600160a060020a03811615156100f657600080fd5b600160a060020a03811630141561010c57600080fd5b855160001061011a57600080fd5b845160001061012857600080fd5b845186511461013657600080fd5b604080517f7472616e7366657246726f6d28616464726573732c616464726573732c75696e81527f7432353629000000000000000000000000000000000000000000000000000000602082015290519081900360250190209250600091505b85518210156102505786600160a060020a03168360e060020a90043388858151811015156101bf57fe5b9060200190602002015188868151811015156101d757fe5b906020019060200201516040518463ffffffff1660e060020a0281526004018084600160a060020a0316600160a060020a0316815260200183600160a060020a0316600160a060020a0316815260200182815260200193505050506000604051808303816000875af15050600190930192506101959050565b50600196955050505050505600a165627a7a723058200c2a27242eb2dc123cc7d466ae351ebc9c31d800cd620dd664f039db91efe0890029",
			"opcodes": "PUSH1 0x80 PUSH1 0x40 MSTORE CALLVALUE DUP1 ISZERO PUSH2 0x10 JUMPI PUSH1 0x0 DUP1 REVERT JUMPDEST POP PUSH2 0x289 DUP1 PUSH2 0x20 PUSH1 0x0 CODECOPY PUSH1 0x0 RETURN STOP PUSH1 0x80 PUSH1 0x40 MSTORE PUSH1 0x4 CALLDATASIZE LT PUSH2 0x27 JUMPI PUSH4 0xFFFFFFFF PUSH1 0xE0 PUSH1 0x2 EXP PUSH1 0x0 CALLDATALOAD DIV AND PUSH4 0x72A503BE DUP2 EQ PUSH2 0x2C JUMPI JUMPDEST PUSH1 0x0 DUP1 REVERT JUMPDEST CALLVALUE DUP1 ISZERO PUSH2 0x38 JUMPI PUSH1 0x0 DUP1 REVERT JUMPDEST POP PUSH1 0x40 DUP1 MLOAD PUSH1 0x20 PUSH1 0x4 PUSH1 0x24 DUP1 CALLDATALOAD DUP3 DUP2 ADD CALLDATALOAD DUP5 DUP2 MUL DUP1 DUP8 ADD DUP7 ADD SWAP1 SWAP8 MSTORE DUP1 DUP7 MSTORE PUSH2 0xC8 SWAP7 DUP5 CALLDATALOAD PUSH1 0x1 PUSH1 0xA0 PUSH1 0x2 EXP SUB AND SWAP7 CALLDATASIZE SWAP7 PUSH1 0x44 SWAP6 SWAP2 SWAP5 SWAP1 SWAP2 ADD SWAP3 SWAP2 DUP3 SWAP2 DUP6 ADD SWAP1 DUP5 SWAP1 DUP1 DUP3 DUP5 CALLDATACOPY POP POP PUSH1 0x40 DUP1 MLOAD DUP8 CALLDATALOAD DUP10 ADD DUP1 CALLDATALOAD PUSH1 0x20 DUP2 DUP2 MUL DUP5 DUP2 ADD DUP3 ADD SWAP1 SWAP6 MSTORE DUP2 DUP5 MSTORE SWAP9 SWAP12 SWAP11 SWAP10 DUP10 ADD SWAP9 SWAP3 SWAP8 POP SWAP1 DUP3 ADD SWAP6 POP SWAP4 POP DUP4 SWAP3 POP DUP6 ADD SWAP1 DUP5 SWAP1 DUP1 DUP3 DUP5 CALLDATACOPY POP SWAP5 SWAP8 POP PUSH2 0xDC SWAP7 POP POP POP POP POP POP POP JUMP JUMPDEST PUSH1 0x40 DUP1 MLOAD SWAP2 ISZERO ISZERO DUP3 MSTORE MLOAD SWAP1 DUP2 SWAP1 SUB PUSH1 0x20 ADD SWAP1 RETURN JUMPDEST PUSH1 0x0 DUP1 DUP1 DUP6 PUSH1 0x1 PUSH1 0xA0 PUSH1 0x2 EXP SUB DUP2 AND ISZERO ISZERO PUSH2 0xF6 JUMPI PUSH1 0x0 DUP1 REVERT JUMPDEST PUSH1 0x1 PUSH1 0xA0 PUSH1 0x2 EXP SUB DUP2 AND ADDRESS EQ ISZERO PUSH2 0x10C JUMPI PUSH1 0x0 DUP1 REVERT JUMPDEST DUP6 MLOAD PUSH1 0x0 LT PUSH2 0x11A JUMPI PUSH1 0x0 DUP1 REVERT JUMPDEST DUP5 MLOAD PUSH1 0x0 LT PUSH2 0x128 JUMPI PUSH1 0x0 DUP1 REVERT JUMPDEST DUP5 MLOAD DUP7 MLOAD EQ PUSH2 0x136 JUMPI PUSH1 0x0 DUP1 REVERT JUMPDEST PUSH1 0x40 DUP1 MLOAD PUSH32 0x7472616E7366657246726F6D28616464726573732C616464726573732C75696E DUP2 MSTORE PUSH32 0x7432353629000000000000000000000000000000000000000000000000000000 PUSH1 0x20 DUP3 ADD MSTORE SWAP1 MLOAD SWAP1 DUP2 SWAP1 SUB PUSH1 0x25 ADD SWAP1 KECCAK256 SWAP3 POP PUSH1 0x0 SWAP2 POP JUMPDEST DUP6 MLOAD DUP3 LT ISZERO PUSH2 0x250 JUMPI DUP7 PUSH1 0x1 PUSH1 0xA0 PUSH1 0x2 EXP SUB AND DUP4 PUSH1 0xE0 PUSH1 0x2 EXP SWAP1 DIV CALLER DUP9 DUP6 DUP2 MLOAD DUP2 LT ISZERO ISZERO PUSH2 0x1BF JUMPI INVALID JUMPDEST SWAP1 PUSH1 0x20 ADD SWAP1 PUSH1 0x20 MUL ADD MLOAD DUP9 DUP7 DUP2 MLOAD DUP2 LT ISZERO ISZERO PUSH2 0x1D7 JUMPI INVALID JUMPDEST SWAP1 PUSH1 0x20 ADD SWAP1 PUSH1 0x20 MUL ADD MLOAD PUSH1 0x40 MLOAD DUP5 PUSH4 0xFFFFFFFF AND PUSH1 0xE0 PUSH1 0x2 EXP MUL DUP2 MSTORE PUSH1 0x4 ADD DUP1 DUP5 PUSH1 0x1 PUSH1 0xA0 PUSH1 0x2 EXP SUB AND PUSH1 0x1 PUSH1 0xA0 PUSH1 0x2 EXP SUB AND DUP2 MSTORE PUSH1 0x20 ADD DUP4 PUSH1 0x1 PUSH1 0xA0 PUSH1 0x2 EXP SUB AND PUSH1 0x1 PUSH1 0xA0 PUSH1 0x2 EXP SUB AND DUP2 MSTORE PUSH1 0x20 ADD DUP3 DUP2 MSTORE PUSH1 0x20 ADD SWAP4 POP POP POP POP PUSH1 0x0 PUSH1 0x40 MLOAD DUP1 DUP4 SUB DUP2 PUSH1 0x0 DUP8 GAS CALL POP POP PUSH1 0x1 SWAP1 SWAP4 ADD SWAP3 POP PUSH2 0x195 SWAP1 POP JUMP JUMPDEST POP PUSH1 0x1 SWAP7 SWAP6 POP POP POP POP POP POP JUMP STOP LOG1 PUSH6 0x627A7A723058 KECCAK256 0xc 0x2a 0x27 0x24 0x2e 0xb2 0xdc SLT EXTCODECOPY 0xc7 0xd4 PUSH7 0xAE351EBC9C31D8 STOP 0xcd PUSH3 0xDD664 CREATE CODECOPY 0xdb SWAP2 0xef 0xe0 DUP10 STOP 0x29 "
		},
		"gasEstimates": {
			"creation": {
				"codeDepositCost": "129800",
				"executionCost": "177",
				"totalCost": "129977"
			},
			"external": {
				"transfer(address,address[],uint256[])": "infinite"
			}
		},
		"methodIdentifiers": {
			"transfer(address,address[],uint256[])": "72a503be"
		}
	},
	"abi": [
		{
			"constant": false,
			"inputs": [
				{
					"name": "contract_address",
					"type": "address"
				},
				{
					"name": "tos",
					"type": "address[]"
				},
				{
					"name": "vs",
					"type": "uint256[]"
				}
			],
			"name": "transfer",
			"outputs": [
				{
					"name": "",
					"type": "bool"
				}
			],
			"payable": false,
			"stateMutability": "nonpayable",
			"type": "function"
		},
		{
			"inputs": [],
			"payable": false,
			"stateMutability": "nonpayable",
			"type": "constructor"
		}
	]
}